:100000000C942A000C9447000C9447000C94470071
:100010000C9447000C9447000C9447000C94150571
:100020000C9447000C9447000C9447000C94470034
:100030000C9447000C9447000C9447000C94470024
:100040000C9447000C9447000C9447000C94470014
:100050000C94470011241FBECFE5D8E0DEBFCDBF12
:1000600010E0A0E6B0E0ECE0FAE102C005900D92ED
:10007000A037B107D9F724E0A0E7B0E001C01D9296
:10008000AD3EB207E1F70E947C030C94040D0C9482
:100090000000E5E7F0E08AE790E091838083138237
:1000A0001282E1E7F0E087EE93E09383828311828E
:1000B0001082A9E7B0E014969C938E931397129642
:1000C000FC93EE93119708950F931F93CF93DF93B3
:1000D000EC010E949E0980917000811105C00E9470
:1000E000490081E080937000209709F02496CE01AA
:1000F0000197863E934008F056C0E0917500F0915C
:100100007600A5E7B0E002C0DF01FC0182819381A7
:100110008C179D0720F4808191810097A9F780E0DA
:10012000E137F80709F442C00D911C9111970C5F5B
:100130001F4F808191818D939C93828193818C1B31
:100140009D0B8930910510F1AF014C0F5D1FDA0155
:1001500013969C938E931297D383C28312962D91FC
:100160003C91139765E770E001C0BD01EB01A881E8
:10017000B98112968D919C91139782179307A8F3DA
:10018000EA01B983A883DB014D935C93228133811B
:100190008091600090916100821B930B90936100AD
:1001A0008093600005C000E010E002C000E010E0B5
:1001B0000E945E0AC801DF91CF911F910F910895AF
:1001C0000F931F93CF93DF93009741F1EC018C01C4
:1001D000045011090E949E09F80142815381A5E74C
:1001E000B0E001C0DF01ED91FC91119722813381D4
:1001F00024173507B8F32497F983E8830D931C93EC
:100200008A819B812091600030916100820F931F51
:1002100090936100809360000E945E0ADF91CF910D
:100220001F910F9108959BB394609BBB84FF04C002
:100230009BB390619BBB03C09BB39F7E9BBB85FF21
:1002400004C09BB390629BBB03C09BB39F7D9BBBD1
:1002500086FF04C09BB390649BBB03C09BB39F7B92
:100260009BBB882324F49BB390689BBB03C09BB3C8
:100270009F779BBB9BB398609BBBEFE9FFE03197F7
:10028000F1F700C000009BB3977F9BBBEFE9FFE055
:100290003197F1F700C0000080FF04C09BB390616C
:1002A0009BBB03C09BB39F7E9BBB81FF04C09BB3E2
:1002B00090629BBB03C09BB39F7D9BBB82FF04C02E
:1002C0009BB390649BBB03C09BB39F7B9BBB83FF93
:1002D00004C08BB380688BBB03C08BB38F778BBBA1
:1002E0008BB388608BBB8FE99FE00197F1F700C06B
:1002F00000008BB3877F8BBBEFE9FFE03197F1F70D
:1003000000C0000008959BB39B7F9BBB84FF04C08B
:100310009BB390619BBB03C09BB39F7E9BBB85FF40
:1003200004C09BB390629BBB03C09BB39F7D9BBBF0
:1003300086FF04C09BB390649BBB03C09BB39F7BB1
:100340009BBB882324F49BB390689BBB03C09BB3E7
:100350009F779BBB9BB398609BBBEFE9FFE0319716
:10036000F1F700C000009BB3977F9BBBEFE9FFE074
:100370003197F1F700C0000080FF04C09BB390618B
:100380009BBB03C09BB39F7E9BBB81FF04C09BB301
:1003900090629BBB03C09BB39F7D9BBB82FF04C04D
:1003A0009BB390649BBB03C09BB39F7B9BBB83FFB2
:1003B00004C08BB380688BBB03C08BB38F778BBBC0
:1003C0008BB388608BBB8FE99FE00197F1F700C08A
:1003D00000008BB3877F8BBBEFE9FFE03197F1F72C
:1003E00000C0000008958AB38C6F8ABB83E00E942E
:1003F00083018FE79EE30197F1F700C0000083E0DF
:100400000E9483018FE79EE30197F1F700C000008F
:1004100083E00E9483018FE79EE30197F1F700C01C
:10042000000082E00E94830188E20E94830181E053
:100430000E94830186E00E9483018CE00E94830178
:100440009FEF29EF80E0915020408040E1F700C00D
:10045000000008950F931F93CF93DF93CDB7DEB7BE
:100460002A970FB6F894DEBF0FBECDBF99234CF488
:1004700090958095709561957F4F8F4F9F4F01E0CC
:1004800001C000E06115710581059105D1F480E39B
:100490000E94130131C02AE030E040E050E00E94A9
:1004A000BA0CE1E0F0E0EC0FFD1FE10FF11D17FDCC
:1004B000FA95605D6083622F732F842F952F1F5FE5
:1004C00001C010E0611571058105910521F71150FA
:1004D000013081F48DE20E9413010CC0E1E0F0E0F4
:1004E000EC0FFD1FE10FF11D17FDFA9580810E94B1
:1004F00013011150112394F72A960FB6F894DEBF1A
:100500000FBECDBFDF91CF911F910F910895FC01D8
:100510000396928381832FEF3FEF34832383968367
:1005200085839087878310820895FC011186108649
:100530000895CF93DF939C01FB01DC011196CD91CF
:10054000DC911297D383C2838C819D8195838483B0
:100550008C819D81DC0113967C936E9312977D8331
:100560006C8331872087F90180818F5F8083DF91E1
:10057000CF910895CF93DF93EB01488159814F3F8D
:100580002FEF520721F4FC01A781B0850DC0DC01DB
:10059000139601C0DF011296ED91FC911397208113
:1005A000318142175307B0F71296ED91FC911397E2
:1005B000FB83EA83D583C483BD83AC831396DC932A
:1005C000CE93129799878887FC0120812F5F208323
:1005D000DF91CF910895CF93DF93FC01A085B18582
:1005E000C281D381848195819D838C83C481D5818F
:1005F000828193819B838A8311968D919C9112971E
:10060000E817F90731F48481958112969C938E93B3
:100610001197118610868C9181508C93DF91CF9128
:100620000895C0E020E048EE53E060E070E0809183
:100630006104909162040E94F506813099F780E888
:100640000E948301D1E0DC0F6C2F70E080E090E02D
:100650000E942A0220E040E050E060E070E08091DB
:100660006104909162040E94630684E690E00E9417
:10067000D00ACD2FD7CFC0E020E048EE53E060E0B5
:1006800070E080916104909162040E94F5068130CF
:1006900099F780EC0E948301D1E0DC0F6C2F70E0B1
:1006A00080E090E00E942A0220E040E050E060E01C
:1006B00070E080916104909162040E94630688EC6E
:1006C00090E00E94D00ACD2FD7CF87B3826087BB3E
:1006D00087B38B7F87BB88B3846088BBB29B04C021
:1006E00088B3826088BB03C088B38D7F88BB8AE0F3
:1006F00090E00E94D00AF2CFEF92FF920F930E94F7
:10070000F30143E060E081E00E94390690936204C7
:1007100080936104009739F020E040E050E060E011
:1007200070E00E946306E12CF12C01E020E030E053
:1007300040E550E062E670E081E193E00E9420092C
:1007400020E030E040E550E065E670E08BE393E0C8
:100750000E94200920E030E040E550E068E670E0CB
:1007600085E693E00E9420090E94740980E090E0F1
:100770000F91FF90EF9008951BBC8CE78ABD8BE032
:100780008EBD89B7806189BF089531E1FC01308356
:10079000319722E220833197A3E3A08331976083CE
:1007A0003197708331971082319760E86083319779
:1007B0001082319762E06083319763E06083319704
:1007C00064E06083319765E06083319766E0608321
:1007D000319767E06083319768E06083319769E023
:1007E0006083319760E1608331973083319732E1E4
:1007F0003083319733E13083319734E1308331975F
:1008000035E13083319736E13083319737E13083FA
:10081000319738E13083319739E13083319730E2D5
:100820003083319731E2308331972083319723E24F
:1008300020833197408331975083319726E220837C
:10084000319727E22083319728E22083319729E2EC
:100850002083319720E32083319721E320838697FB
:1008600008950E94BC03A091EB04B091EC04CD91DB
:10087000CDBFDD91DEBFFF91EF91DF91CF91BF91B1
:10088000AF919F918F917F916F915F914F913F9128
:100890002F911F910F91FF90EF90DF90CF90BF901D
:1008A000AF909F908F907F906F905F904F903F9010
:1008B0002F901F900F900FBE0F90089581E0089524
:1008C0000F920FB6F8940F921F9211242F923F921D
:1008D0004F925F926F927F928F929F92AF92BF9250
:1008E000CF92DF92EF92FF920F931F932F933F933C
:1008F0004F935F936F937F938F939F93AF93BF9328
:10090000CF93DF93EF93FF93A091EB04B091EC04AE
:100910000DB60D920EB60D920E94170BA091EB042E
:10092000B091EC04CD91CDBFDD91DEBFFF91EF9191
:10093000DF91CF91BF91AF919F918F917F916F91F7
:100940005F914F913F912F911F910F91FF90EF90E9
:10095000DF90CF90BF90AF909F908F907F906F90DF
:100960005F904F903F902F901F900F900FBE0F9071
:1009700008950F920FB6F8940F921F9211242F92A0
:100980003F924F925F926F927F928F929F92AF921F
:10099000BF92CF92DF92EF92FF920F931F932F930C
:1009A0003F934F935F936F937F938F939F93AF93F7
:1009B000BF93CF93DF93EF93FF93A091EB04B0919C
:1009C000EC040DB60D920EB60D920E94A409811191
:1009D0000E94170BA091EB04B091EC04CD91CDBF18
:1009E000DD91DEBFFF91EF91DF91CF91BF91AF918C
:1009F0009F918F917F916F915F914F913F912F9137
:100A00001F910F91FF90EF90DF90CF90BF90AF902C
:100A10009F908F907F906F905F904F903F902F901E
:100A20001F900F900FBE0F9008950E94B904189563
:100A30000FB6F8940F92FC01828D811102C081E003
:100A400001C080E00F900FBE08950FB6F8940F928A
:100A5000FC01228D838D281302C081E001C080E05B
:100A60000F900FBE08950F931F93CF93DF93EC0168
:100A7000042F1A8D4C8D41110CC088819981892BCE
:100A800009F042C08A819B810E94680C1B821A82F5
:100A900042C0011117C050E08C819D810E94FB0C67
:100AA0002C8D8C819D81820F911D9D838C832A8149
:100AB0003B818217930750F1888199819D838C83B4
:100AC00080E029C050E08E819F810E94FB0C8C8DBC
:100AD00090E09195819591092E813F81280F391FD2
:100AE0003F832E83488159812417350730F42A81AA
:100AF0003B81820F931F9F838E83023049F4112321
:100B000049F0115080E007C080E005C080E003C0DC
:100B100080E001C080E01F5F1A8FDF91CF911F91AD
:100B20000F910895FC01448D4423A9F050E02681E3
:100B30003781240F351F37832683828193812817BD
:100B4000390720F08081918197838683CB0166816C
:100B500077810E94FB0C08951F93CF93DF93EC01E4
:100B60000FB6F8940F921E8D0BC08989882351F01F
:100B7000CE0141960E947D0B81110E94020C115002
:100B800011169CF38FEF8E8F0F900FBE0FB6F89457
:100B90000F921D8D0BC08885882351F0CE010896D9
:100BA0000E947D0B81110E94020C115011169CF3C2
:100BB0008FEF8D8F0F900FBEDF91CF911F91089512
:100BC000CF93DF93EC010FB6F8940F92E881F9818F
:100BD0008B8D90E02C8D30E0829FA001839F500D83
:100BE000929F500D11244E0F5F1F5B834A831A8E14
:100BF000FD83EC830197289FA001299F500D389F0A
:100C0000500D1124CF01840F951F9F838E838FEF8A
:100C10008D8F8E8F61110CC08885882389F0CE015D
:100C200008960E947D0B882359F00E94600408C03A
:100C3000CE0108960E948702CE0141960E9487024B
:100C40000F900FBE81E0DF91CF9108950F931F9316
:100C5000F801611103C01183008302C051834083F6
:100C6000838F648F61E0CF010E94E0051F910F9197
:100C70000895DF92EF92FF920F931F93CF93DF932C
:100C8000E82EF62ED42E662321F0869FC001112473
:100C900002C080E090E04F960E946400EC01009753
:100CA00049F08C012D2DAC01415E5F4F6F2D8E2DD3
:100CB0000E942606CE01DF91CF911F910F91FF90E8
:100CC000EF90DF900895CF92DF92EF92FF920F9313
:100CD0001F93CF93DF9300D000D01F92CDB7DEB724
:100CE0008C017B015D834C83C22ED12C0FB6F8940E
:100CF0000F92F801928D838D981718F0F2E0CF12C1
:100D000019C04C2DB701C8010E943305F801918923
:100D1000992349F0C80141960E947D0B882331F048
:100D20000E94600403C081110E9460040F900FBEF6
:100D300081E04DC08C819D81892B21F40F900FBEE5
:100D400080E045C0D11006C0CE0101960E94C50BBF
:100D5000DD24D3940F900FBE0E949E090FB6F89425
:100D60000F92F801858D8F3F09F4158EF801868D5D
:100D70008F3F09F4168E0F900FBEBE016C5F7F4F40
:100D8000CE0101960E94D00B81111BC0C8010E94A8
:100D90002505882381F06C817D81C80108960E9419
:100DA0006B0BC8010E94AC050E945E0A81119ECFA8
:100DB0000E9460049BCFC8010E94AC050E945E0A9D
:100DC00095CFC8010E94AC050E945E0A80E00F909A
:100DD0000F900F900F900F90DF91CF911F910F9177
:100DE000FF90EF90DF90CF9008958F929F92BF92E7
:100DF000CF92DF92EF92FF920F931F93CF93DF93E7
:100E000000D000D01F92CDB7DEB78C016B015D839F
:100E10004C83B22EE12C0FB6F8940F92F801F28CAD
:100E2000FF2091F186809780B601C8010E9492054B
:100E3000B11019C0FA94F801F28E80819181892B4A
:100E400029F40E94A80CF80193838283F80180851D
:100E50008823B1F0C80108960E947D0B882381F099
:100E60000E9460040DC0F8019782868281898823E0
:100E700039F0C80141960E947D0B81110E946004E7
:100E80000F900FBE81E061C08C819D81892B21F480
:100E90000F900FBE80E059C0E11006C0CE01019650
:100EA0000E94C50BEE24E3940F900FBE0E949E0992
:100EB0000FB6F8940F92F801858D8F3F09F4158EC7
:100EC000F801868D8F3F09F4168E0F900FBEBE017C
:100ED0006C5F7F4FCE0101960E94D00B811129C01B
:100EE000C8010E9418058823F1F0F80180819181E2
:100EF000892B49F40FB6F8940F92828193810E9456
:100F0000060C0F900FBE6C817D81C80141960E9436
:100F10006B0BC8010E94AC050E945E0A81117BCF59
:100F20000E94600478CFC8010E94AC050E945E0A4E
:100F300072CFC8010E94AC050E945E0AC8010E94DF
:100F40001805882309F467CF80E00F900F900F9069
:100F50000F900F90DF91CF911F910F91FF90EF9025
:100F6000DF90CF90BF909F908F900895E09186047E
:100F7000F09187048081811107C08FEF9FEF9093DC
:100F80006704809366040895E0918604F0918704D5
:100F90000580F681E02D0680F781E02D8281938126
:100FA00090936704809366040895CF93DF93EC01D8
:100FB0008F89988D0E94E000CE010E94E000DF91B1
:100FC000CF9108956F927F928F929F92AF92BF922E
:100FD000CF92DF92EF920F931F93CF93DF93CDB712
:100FE000DEB74C01F5018789908D215031093C0114
:100FF000620E731E20E00FC0822F90E0FB01E80F0D
:10100000F91F3081D501A80FB91F59963C938081F3
:10101000882319F02F5F283078F3F50110A2F8E04B
:10102000FE1518F46894EE24E3F8F501E68AE1A2CF
:1010300012A2C50102960E949502C5010C960E945B
:101040009502F501B186A08689E090E08E1991099C
:1010500095878487B38AA28A13A214A215A216A226
:1010600017A2A801B401C3010E94C503F501918331
:101070008083C114D10419F0F601B182A082DF91FE
:10108000CF911F910F91EF90DF90CF90BF90AF90D5
:101090009F908F907F906F900895CF93C0E010C085
:1010A0008C2F90E09C01220F331F220F331F220F41
:1010B000331F820F931F86569B4F0E948702CF5F7C
:1010C000C93070F381E994E00E94870288E894E0D7
:1010D0000E9487028BE794E00E94870282E794E0F7
:1010E0000E94870281E994E09093870480938604AC
:1010F00088E894E09093850480938404CF910895C8
:10110000CF93DF93EC010FB6F8940F9280917004A7
:101110008F5F809370048091EB049091EC04892B95
:1011200059F4D093EC04C093EB04809170048130A7
:1011300099F40E944D0810C080916C0481110CC07C
:10114000E091EB04F091EC0496898E89891720F0E8
:10115000D093EC04C093EB04809168048F5F80937C
:1011600068048E8990916D04981710F480936D0433
:1011700090E09C01220F331F220F331F220F331FD9
:10118000820F931FBE016E5F7F4F86569B4F0E945A
:1011900099020F900FBE80916C04882351F0E0916A
:1011A000EB04F091EC0496898E89981710F40E9454
:1011B0006004DF91CF9108950F931F93CF93DF9336
:1011C000EC0100916E0410916F048091EB049091FA
:1011D000EC0402960E94EB02C00FD11FE091EB04D9
:1011E000F091EC04D383C283C017D10768F46091F7
:1011F000EB047091EC0480918404909185046E5FFF
:101200007F4F0E94BA0217C06091EB047091EC040A
:1012100080918604909187046E5F7F4F0E94BA028E
:101220008091660490916704C817D90720F4D09381
:101230006704C0936604DF91CF911F910F910895C9
:101240002F923F924F925F926F927F928F929F92D6
:10125000AF92BF92CF92DF92EF92FF920F931F93C4
:10126000CF93DF933C011B015A012901CA010E945F
:1012700064006C01892B71F088E290E00E946400A8
:10128000EC01892B19F0D88ECF8A06C0C6010E94C6
:10129000E00002C0C0E0D0E0209791F0950140E06E
:1012A00050E0812C912C5E016701E02E8201B1019A
:1012B000C3010E94E207CE010E94800881E001C0C4
:1012C0008FEFDF91CF911F910F91FF90EF90DF9003
:1012D000CF90BF90AF909F908F907F906F905F90D6
:1012E0004F903F902F900895EF92FF920F930F2E03
:1012F000F4E6EF2EF4E0FF2EF02D00E020E030E0E9
:1013000040E550E06BE670E084E19BE00E9420093C
:10131000813081F4F8948FEF9FEF9093670480936E
:10132000660481E080936C0410926F0410926E0446
:101330000E9431040F91FF90EF9008958091630413
:101340008F5F809363040895DF92EF92FF920F9373
:101350001F93CF93DF9380916304811197C0E09036
:101360006E04F0906F048FEFE81AF80AF0926F04A1
:10137000E0926E04E114F104B9F480918604909136
:10138000870420918404309185043093870420934E
:1013900086049093850480938404809169048F5F10
:1013A000809369040E94B607809166049091670457
:1013B000E816F90628F4D12C53C0DD24D39401C0DB
:1013C000D12CE0918604F09187048081811107C0BF
:1013D0008FEF9FEF909367048093660441C0E09184
:1013E0008604F09187040580F681E02DC681D781BF
:1013F0008A819B81E816F90628F49093670480930C
:1014000066042EC08E010E5F1F4FC8010E94EB02C2
:101410008C899D89892B21F0CE010C960E94EB02CC
:101420008E8990916D04981710F480936D0490E06C
:101430009C01220F331F220F331F220F331F820FF5
:10144000931FB80186569B4F0E9499029E89E09196
:10145000EB04F091EC048689981708F0AECFB1CF79
:10146000E091EB04F091EC04868990E0FC01EE0F32
:10147000FF1FEE0FFF1FEE0FFF1F8E0F9F1FFC01C0
:10148000E656FB4F8081823040F409C080916B04A6
:101490008F5F80936B04D12C02C0DD24D3948091A4
:1014A0006A04882311F0DD24D3948D2DDF91CF9130
:1014B0001F910F91FF90EF90DF9008950F931F936E
:1014C000CF93DF930FB6F8940F928091630481500D
:1014D0008093630480916304811158C080917004EB
:1014E000811133C056C0E0918004F0918104C6811F
:1014F000D781CE010C960E94EB028E010E5F1F4F2A
:10150000C8010E94EB028E8990916D04981710F427
:1015100080936D0490E09C01220F331F220F331F34
:10152000220F331F820F931FB80186569B4F0E94D4
:1015300099029E89E091EB04F091EC04868998175A
:1015400030F081E080936A0402C0C0E0D0E0809176
:101550007B048111C8CFCD2B11F00E94B607C0913A
:101560006B04CC2359F00E94A409882319F081E070
:1015700080936A04C150B9F710926B0480916A0499
:10158000882331F00E94600481E003C080E001C044
:1015900080E00F900FBEDF91CF911F910F910895C2
:1015A000CF93DF93EC01892B49F00E949E0960E004
:1015B000CE010E94DC080E945E0A01C080E0811119
:1015C00002C00E946004DF91CF910895CF93DF9312
:1015D00024C00E949E09C09172040E945E0ACC231E
:1015E000E1F00FB6F8940F92E0917704F09178044F
:1015F000C681D781CE0102960E94EB0280917004D1
:1016000081508093700480917104815080937104A3
:101610000F900FBECE010E94D507809171048111F9
:10162000D8CFDF91CF9108950E94E60AFDCF809137
:101630006304882321F081E080936A040895109266
:101640006A0420916D0401C02150822F90E0FC01BA
:10165000EE0FFF1FEE0FFF1FEE0FFF1FE80FF91F2A
:10166000E656FB4F3081332379F3AC01440F551F0D
:10167000440F551F440F551F480F591FDF010180AC
:10168000F281E02D0280F381E02D1296FC93EE931F
:10169000119743565B4FE417F50729F442815381B4
:1016A000FD0152834183FC01EE0FFF1FEE0FFF1F70
:1016B000EE0FFF1F8E0F9F1FFC01E656FB4F0180B0
:1016C000F281E02D868197819093EC048093EB0466
:1016D00020936D040895CF93DF93EB016091EB04A9
:1016E0007091EC04645F7F4F0E94BA0261E0CE010A
:1016F0000E94DC08DF91CF9108950F931F93CF9341
:10170000DF93DC011596ED91FC911697C681D78188
:101710008E01045F1F4FC8010E94EB028091630499
:1017200081111CC00A501109C8010E94EB028E8968
:1017300090916D04981710F480936D0490E09C01D3
:10174000220F331F220F331F220F331F820F931FCD
:10175000B80186569B4F0E94990205C0B8018BE7DD
:1017600094E00E9499029E89E091EB04F091EC04D0
:101770008689891720F481E080936A0401C080E0A3
:10178000DF91CF911F910F91089520916904FC0181
:10179000208320916E0430916F0432832183089559
:1017A000CF93DF93FC010FB6F8940F9240916E0433
:1017B00050916F04908180916904981729F081817C
:1017C000928148175907B0F421813281CA01821BE6
:1017D000930BEB01A881B9818A179B0768F4CF01AD
:1017E000241B350B2A0F3B1F398328830E94C50B0E
:1017F00080E003C081E001C081E00F900FBEDF9167
:10180000CF91089581E080936A0408950F931F9308
:10181000CF93DF93FC01892B09F455C02689A09151
:10182000EB04B091EC0456968C91281708F04BC04D
:1018300084859585992364F0A091EB04B091EC0424
:1018400056963C9189E090E0831B910995878487A7
:101850008285938530E0A901440F551F440F551F21
:10186000440F551F240F351F26563B4F82179307F1
:1018700019F58F01EF012296CE010E94EB02E09153
:10188000EB04F091EC048689F801868B90916D044D
:10189000981710F480936D0490E09C01220F331F81
:1018A000220F331F220F331F820F931FBE01865654
:1018B0009B4F0E94990207C0A091EB04B091EC04E9
:1018C00056968C91868BDF91CF911F910F91089541
:1018D0000F931F93CF93DF93FC01892B79F182A1A2
:1018E000815082A3268991A1291751F181112AC023
:1018F000EF018F010E5F1F4FC8010E94EB0289A10B
:101900008E8B29E030E0281B31093D872C87909190
:101910006D04981710F480936D0490E09C01220FE1
:10192000331F220F331F220F331F820F931FB80163
:1019300086569B4F0E94990281E005C080E003C05B
:1019400080E001C080E0DF91CF911F910F91089559
:101950008091EB049091EC04892B39F0E091EB0439
:10196000F091EC0482A18F5F82A38091EB049091AF
:10197000EC040895052E97FB1EF400940E94D10CF0
:1019800057FD07D00E94D90C07FC03D04EF40C94ED
:10199000D10C50954095309521953F4F4F4F5F4F5B
:1019A000089590958095709561957F4F8F4F9F4FCB
:1019B0000895A1E21A2EAA1BBB1BFD010DC0AA1F90
:1019C000BB1FEE1FFF1FA217B307E407F50720F0A8
:1019D000A21BB30BE40BF50B661F771F881F991F23
:1019E0001A9469F760957095809590959B01AC016C
:1019F000BD01CF010895FB01DC0102C001900D92F1
:0C1A000041505040D8F70895F894FFCFF3
:101A0C00E70354310054320054330049444C450030
:00000001FF
